{
  "contractName": "Voting",
  "abi": [
    {
      "inputs": [
        {
          "internalType": "string[]",
          "name": "candidateNames",
          "type": "string[]"
        }
      ],
      "stateMutability": "nonpayable",
      "type": "constructor"
    },
    {
      "anonymous": false,
      "inputs": [
        {
          "indexed": false,
          "internalType": "string",
          "name": "message",
          "type": "string"
        }
      ],
      "name": "Debug",
      "type": "event"
    },
    {
      "inputs": [
        {
          "internalType": "uint256",
          "name": "",
          "type": "uint256"
        }
      ],
      "name": "candidateList",
      "outputs": [
        {
          "internalType": "string",
          "name": "",
          "type": "string"
        }
      ],
      "stateMutability": "view",
      "type": "function",
      "constant": true
    },
    {
      "inputs": [
        {
          "internalType": "address",
          "name": "",
          "type": "address"
        }
      ],
      "name": "hasVoted",
      "outputs": [
        {
          "internalType": "bool",
          "name": "",
          "type": "bool"
        }
      ],
      "stateMutability": "view",
      "type": "function",
      "constant": true
    },
    {
      "inputs": [],
      "name": "owner",
      "outputs": [
        {
          "internalType": "address",
          "name": "",
          "type": "address"
        }
      ],
      "stateMutability": "view",
      "type": "function",
      "constant": true
    },
    {
      "inputs": [
        {
          "internalType": "string",
          "name": "",
          "type": "string"
        }
      ],
      "name": "votesReceived",
      "outputs": [
        {
          "internalType": "uint256",
          "name": "",
          "type": "uint256"
        }
      ],
      "stateMutability": "view",
      "type": "function",
      "constant": true
    }
  ],
  "bytecode": "0x60806040523480156200001157600080fd5b50604051620010cc380380620010cc8339818101604052810190620000379190620004fa565b7f7cdb51e9dbbc205231228146c3246e7f914aa6d4a33170e43ecc8e3593481d1a6040516200006690620007cc565b60405180910390a16000815111620000b5576040517f08c379a0000000000000000000000000000000000000000000000000000000008152600401620000ac90620007ee565b60405180910390fd5b7f7cdb51e9dbbc205231228146c3246e7f914aa6d4a33170e43ecc8e3593481d1a604051620000e49062000832565b60405180910390a1336000806101000a81548173ffffffffffffffffffffffffffffffffffffffff021916908373ffffffffffffffffffffffffffffffffffffffff1602179055507f7cdb51e9dbbc205231228146c3246e7f914aa6d4a33170e43ecc8e3593481d1a6040516200015b9062000810565b60405180910390a160005b815181101562000307576003828281518110620001ac577f4e487b7100000000000000000000000000000000000000000000000000000000600052603260045260246000fd5b6020026020010151908060018154018082558091505060019003906000526020600020016000909190919091509080519060200190620001ee92919062000346565b50600060028383815181106200022d577f4e487b7100000000000000000000000000000000000000000000000000000000600052603260045260246000fd5b602002602001015160405162000244919062000769565b9081526020016040518091039020819055507f7cdb51e9dbbc205231228146c3246e7f914aa6d4a33170e43ecc8e3593481d1a828281518110620002b1577f4e487b7100000000000000000000000000000000000000000000000000000000600052603260045260246000fd5b6020026020010151604051602001620002cb919062000782565b604051602081830303815290604052604051620002e99190620007a8565b60405180910390a18080620002fe90620009a9565b91505062000166565b507f7cdb51e9dbbc205231228146c3246e7f914aa6d4a33170e43ecc8e3593481d1a604051620003379062000854565b60405180910390a15062000a95565b828054620003549062000973565b90600052602060002090601f016020900481019282620003785760008555620003c4565b82601f106200039357805160ff1916838001178555620003c4565b82800160010185558215620003c4579182015b82811115620003c3578251825591602001919060010190620003a6565b5b509050620003d39190620003d7565b5090565b5b80821115620003f2576000816000905550600101620003d8565b5090565b60006200040d6200040784620008aa565b62000876565b9050808382526020820190508260005b85811015620004515781518501620004368882620004cd565b8452602084019350602083019250506001810190506200041d565b5050509392505050565b6000620004726200046c84620008d9565b62000876565b9050828152602081018484840111156200048b57600080fd5b620004988482856200093d565b509392505050565b600082601f830112620004b257600080fd5b8151620004c4848260208601620003f6565b91505092915050565b600082601f830112620004df57600080fd5b8151620004f18482602086016200045b565b91505092915050565b6000602082840312156200050d57600080fd5b600082015167ffffffffffffffff8111156200052857600080fd5b6200053684828501620004a0565b91505092915050565b60006200054c826200090c565b62000558818562000917565b93506200056a8185602086016200093d565b620005758162000a84565b840191505092915050565b60006200058d826200090c565b62000599818562000928565b9350620005ab8185602086016200093d565b80840191505092915050565b6000620005c660138362000917565b91507f436f6e7374727563746f722073746172746564000000000000000000000000006000830152602082019050919050565b60006200060860218362000917565b91507f43616e646964617465206c697374206d757374206e6f7420626520656d70747960008301527f2e000000000000000000000000000000000000000000000000000000000000006020830152604082019050919050565b600062000670600c8362000917565b91507f4f776e65722069732073657400000000000000000000000000000000000000006000830152602082019050919050565b6000620006b2601b8362000917565b91507f43616e646964617465206c697374206973206e6f7420656d70747900000000006000830152602082019050919050565b6000620006f460148362000917565b91507f436f6e7374727563746f722066696e69736865640000000000000000000000006000830152602082019050919050565b60006200073660118362000928565b91507f41646465642063616e6469646174653a200000000000000000000000000000006000830152601182019050919050565b600062000777828462000580565b915081905092915050565b60006200078f8262000727565b91506200079d828462000580565b915081905092915050565b60006020820190508181036000830152620007c481846200053f565b905092915050565b60006020820190508181036000830152620007e781620005b7565b9050919050565b600060208201905081810360008301526200080981620005f9565b9050919050565b600060208201905081810360008301526200082b8162000661565b9050919050565b600060208201905081810360008301526200084d81620006a3565b9050919050565b600060208201905081810360008301526200086f81620006e5565b9050919050565b6000604051905081810181811067ffffffffffffffff82111715620008a0576200089f62000a55565b5b8060405250919050565b600067ffffffffffffffff821115620008c857620008c762000a55565b5b602082029050602081019050919050565b600067ffffffffffffffff821115620008f757620008f662000a55565b5b601f19601f8301169050602081019050919050565b600081519050919050565b600082825260208201905092915050565b600081905092915050565b6000819050919050565b60005b838110156200095d57808201518184015260208101905062000940565b838111156200096d576000848401525b50505050565b600060028204905060018216806200098c57607f821691505b60208210811415620009a357620009a262000a26565b5b50919050565b6000620009b68262000933565b91507fffffffffffffffffffffffffffffffffffffffffffffffffffffffffffffffff821415620009ec57620009eb620009f7565b5b600182019050919050565b7f4e487b7100000000000000000000000000000000000000000000000000000000600052601160045260246000fd5b7f4e487b7100000000000000000000000000000000000000000000000000000000600052602260045260246000fd5b7f4e487b7100000000000000000000000000000000000000000000000000000000600052604160045260246000fd5b6000601f19601f8301169050919050565b6106278062000aa56000396000f3fe608060405234801561001057600080fd5b506004361061004c5760003560e01c806309eef43e146100515780638d4b44d9146100815780638da5cb5b146100b1578063b13c744b146100cf575b600080fd5b61006b600480360381019061006691906102af565b6100ff565b60405161007891906103c3565b60405180910390f35b61009b600480360381019061009691906102d8565b61011f565b6040516100a89190610400565b60405180910390f35b6100b961014d565b6040516100c691906103a8565b60405180910390f35b6100e960048036038101906100e49190610319565b610171565b6040516100f691906103de565b60405180910390f35b60016020528060005260406000206000915054906101000a900460ff1681565b6002818051602081018201805184825260208301602085012081835280955050505050506000915090505481565b60008054906101000a900473ffffffffffffffffffffffffffffffffffffffff1681565b6003818154811061018157600080fd5b90600052602060002001600091509050805461019c90610522565b80601f01602080910402602001604051908101604052809291908181526020018280546101c890610522565b80156102155780601f106101ea57610100808354040283529160200191610215565b820191906000526020600020905b8154815290600101906020018083116101f857829003601f168201915b505050505081565b600061023061022b8461044c565b61041b565b90508281526020810184848401111561024857600080fd5b6102538482856104e0565b509392505050565b60008135905061026a816105c3565b92915050565b600082601f83011261028157600080fd5b813561029184826020860161021d565b91505092915050565b6000813590506102a9816105da565b92915050565b6000602082840312156102c157600080fd5b60006102cf8482850161025b565b91505092915050565b6000602082840312156102ea57600080fd5b600082013567ffffffffffffffff81111561030457600080fd5b61031084828501610270565b91505092915050565b60006020828403121561032b57600080fd5b60006103398482850161029a565b91505092915050565b61034b81610498565b82525050565b61035a816104aa565b82525050565b600061036b8261047c565b6103758185610487565b93506103858185602086016104ef565b61038e816105b2565b840191505092915050565b6103a2816104d6565b82525050565b60006020820190506103bd6000830184610342565b92915050565b60006020820190506103d86000830184610351565b92915050565b600060208201905081810360008301526103f88184610360565b905092915050565b60006020820190506104156000830184610399565b92915050565b6000604051905081810181811067ffffffffffffffff8211171561044257610441610583565b5b8060405250919050565b600067ffffffffffffffff82111561046757610466610583565b5b601f19601f8301169050602081019050919050565b600081519050919050565b600082825260208201905092915050565b60006104a3826104b6565b9050919050565b60008115159050919050565b600073ffffffffffffffffffffffffffffffffffffffff82169050919050565b6000819050919050565b82818337600083830152505050565b60005b8381101561050d5780820151818401526020810190506104f2565b8381111561051c576000848401525b50505050565b6000600282049050600182168061053a57607f821691505b6020821081141561054e5761054d610554565b5b50919050565b7f4e487b7100000000000000000000000000000000000000000000000000000000600052602260045260246000fd5b7f4e487b7100000000000000000000000000000000000000000000000000000000600052604160045260246000fd5b6000601f19601f8301169050919050565b6105cc81610498565b81146105d757600080fd5b50565b6105e3816104d6565b81146105ee57600080fd5b5056fea2646970667358221220d4951d8e77173416ca1fbdb89b7224dca0019978ca8ef855d54ded044df0cad764736f6c63430008000033",
  "immutableReferences": {},
  "source": "// SPDX-License-Identifier: MIT\r\npragma solidity ^0.8.0;\r\n\r\ncontract Voting {\r\n    address public owner;\r\n    mapping(address => bool) public hasVoted;\r\n    mapping(string => uint) public votesReceived;\r\n    string[] public candidateList;\r\n\r\n    event Debug(string message);\r\n\r\n    constructor(string[] memory candidateNames) {\r\n        emit Debug(\"Constructor started\");\r\n\r\n        // Add a require statement to ensure candidateNames array is not empty\r\n        require(candidateNames.length > 0, \"Candidate list must not be empty.\");\r\n        emit Debug(\"Candidate list is not empty\");\r\n\r\n        owner = msg.sender;\r\n        emit Debug(\"Owner is set\");\r\n\r\n        // Iterate through the candidateNames and initialize the votesReceived mapping\r\n        for (uint i = 0; i < candidateNames.length; i++) {\r\n            candidateList.push(candidateNames[i]);\r\n            votesReceived[candidateNames[i]] = 0;\r\n            emit Debug(string(abi.encodePacked(\"Added candidate: \", candidateNames[i])));\r\n        }\r\n\r\n        emit Debug(\"Constructor finished\");\r\n    }\r\n}\r\n",
  "sourcePath": "C:\\Users\\Admin\\OneDrive\\Desktop\\Decentralized voting application\\contracts\\voting.sol",
  "compiler": {
    "name": "solc",
    "version": "0.8.0+commit.c7dfd78e.Emscripten.clang"
  },
  "schemaVersion": "3.4.16",
  "updatedAt": "2024-10-29T12:59:37.778Z",
  "networkType": "ethereum",
  "devdoc": {
    "kind": "dev",
    "methods": {},
    "version": 1
  },
  "userdoc": {
    "kind": "user",
    "methods": {},
    "version": 1
  }
}