{
  "contractName": "Voting",
  "abi": [
    {
      "inputs": [
        {
          "internalType": "string[]",
          "name": "candidateNames",
          "type": "string[]"
        }
      ],
      "stateMutability": "nonpayable",
      "type": "constructor"
    },
    {
      "anonymous": false,
      "inputs": [
        {
          "indexed": false,
          "internalType": "string",
          "name": "message",
          "type": "string"
        }
      ],
      "name": "Debug",
      "type": "event"
    },
    {
      "anonymous": false,
      "inputs": [
        {
          "indexed": false,
          "internalType": "string",
          "name": "candidate",
          "type": "string"
        },
        {
          "indexed": false,
          "internalType": "address",
          "name": "voter",
          "type": "address"
        }
      ],
      "name": "Voted",
      "type": "event"
    },
    {
      "inputs": [
        {
          "internalType": "uint256",
          "name": "",
          "type": "uint256"
        }
      ],
      "name": "candidateList",
      "outputs": [
        {
          "internalType": "string",
          "name": "",
          "type": "string"
        }
      ],
      "stateMutability": "view",
      "type": "function",
      "constant": true
    },
    {
      "inputs": [
        {
          "internalType": "address",
          "name": "",
          "type": "address"
        }
      ],
      "name": "hasVoted",
      "outputs": [
        {
          "internalType": "bool",
          "name": "",
          "type": "bool"
        }
      ],
      "stateMutability": "view",
      "type": "function",
      "constant": true
    },
    {
      "inputs": [],
      "name": "owner",
      "outputs": [
        {
          "internalType": "address",
          "name": "",
          "type": "address"
        }
      ],
      "stateMutability": "view",
      "type": "function",
      "constant": true
    },
    {
      "inputs": [
        {
          "internalType": "string",
          "name": "",
          "type": "string"
        }
      ],
      "name": "votesReceived",
      "outputs": [
        {
          "internalType": "uint256",
          "name": "",
          "type": "uint256"
        }
      ],
      "stateMutability": "view",
      "type": "function",
      "constant": true
    },
    {
      "inputs": [
        {
          "internalType": "string",
          "name": "candidate",
          "type": "string"
        }
      ],
      "name": "vote",
      "outputs": [],
      "stateMutability": "nonpayable",
      "type": "function"
    },
    {
      "inputs": [
        {
          "internalType": "string",
          "name": "candidate",
          "type": "string"
        }
      ],
      "name": "validCandidate",
      "outputs": [
        {
          "internalType": "bool",
          "name": "",
          "type": "bool"
        }
      ],
      "stateMutability": "view",
      "type": "function",
      "constant": true
    },
    {
      "inputs": [
        {
          "internalType": "string",
          "name": "candidate",
          "type": "string"
        }
      ],
      "name": "totalVotesFor",
      "outputs": [
        {
          "internalType": "uint256",
          "name": "",
          "type": "uint256"
        }
      ],
      "stateMutability": "view",
      "type": "function",
      "constant": true
    },
    {
      "inputs": [],
      "name": "getAllCandidates",
      "outputs": [
        {
          "internalType": "string[]",
          "name": "",
          "type": "string[]"
        }
      ],
      "stateMutability": "view",
      "type": "function",
      "constant": true
    }
  ],
  "bytecode": "0x60806040523480156200001157600080fd5b5060405162001947380380620019478339818101604052810190620000379190620004fa565b7f7cdb51e9dbbc205231228146c3246e7f914aa6d4a33170e43ecc8e3593481d1a6040516200006690620007cc565b60405180910390a16000815111620000b5576040517f08c379a0000000000000000000000000000000000000000000000000000000008152600401620000ac90620007ee565b60405180910390fd5b7f7cdb51e9dbbc205231228146c3246e7f914aa6d4a33170e43ecc8e3593481d1a604051620000e49062000832565b60405180910390a1336000806101000a81548173ffffffffffffffffffffffffffffffffffffffff021916908373ffffffffffffffffffffffffffffffffffffffff1602179055507f7cdb51e9dbbc205231228146c3246e7f914aa6d4a33170e43ecc8e3593481d1a6040516200015b9062000810565b60405180910390a160005b815181101562000307576003828281518110620001ac577f4e487b7100000000000000000000000000000000000000000000000000000000600052603260045260246000fd5b6020026020010151908060018154018082558091505060019003906000526020600020016000909190919091509080519060200190620001ee92919062000346565b50600060028383815181106200022d577f4e487b7100000000000000000000000000000000000000000000000000000000600052603260045260246000fd5b602002602001015160405162000244919062000769565b9081526020016040518091039020819055507f7cdb51e9dbbc205231228146c3246e7f914aa6d4a33170e43ecc8e3593481d1a828281518110620002b1577f4e487b7100000000000000000000000000000000000000000000000000000000600052603260045260246000fd5b6020026020010151604051602001620002cb919062000782565b604051602081830303815290604052604051620002e99190620007a8565b60405180910390a18080620002fe90620009a9565b91505062000166565b507f7cdb51e9dbbc205231228146c3246e7f914aa6d4a33170e43ecc8e3593481d1a604051620003379062000854565b60405180910390a15062000a95565b828054620003549062000973565b90600052602060002090601f016020900481019282620003785760008555620003c4565b82601f106200039357805160ff1916838001178555620003c4565b82800160010185558215620003c4579182015b82811115620003c3578251825591602001919060010190620003a6565b5b509050620003d39190620003d7565b5090565b5b80821115620003f2576000816000905550600101620003d8565b5090565b60006200040d6200040784620008aa565b62000876565b9050808382526020820190508260005b85811015620004515781518501620004368882620004cd565b8452602084019350602083019250506001810190506200041d565b5050509392505050565b6000620004726200046c84620008d9565b62000876565b9050828152602081018484840111156200048b57600080fd5b620004988482856200093d565b509392505050565b600082601f830112620004b257600080fd5b8151620004c4848260208601620003f6565b91505092915050565b600082601f830112620004df57600080fd5b8151620004f18482602086016200045b565b91505092915050565b6000602082840312156200050d57600080fd5b600082015167ffffffffffffffff8111156200052857600080fd5b6200053684828501620004a0565b91505092915050565b60006200054c826200090c565b62000558818562000917565b93506200056a8185602086016200093d565b620005758162000a84565b840191505092915050565b60006200058d826200090c565b62000599818562000928565b9350620005ab8185602086016200093d565b80840191505092915050565b6000620005c660138362000917565b91507f436f6e7374727563746f722073746172746564000000000000000000000000006000830152602082019050919050565b60006200060860218362000917565b91507f43616e646964617465206c697374206d757374206e6f7420626520656d70747960008301527f2e000000000000000000000000000000000000000000000000000000000000006020830152604082019050919050565b600062000670600c8362000917565b91507f4f776e65722069732073657400000000000000000000000000000000000000006000830152602082019050919050565b6000620006b2601b8362000917565b91507f43616e646964617465206c697374206973206e6f7420656d70747900000000006000830152602082019050919050565b6000620006f460148362000917565b91507f436f6e7374727563746f722066696e69736865640000000000000000000000006000830152602082019050919050565b60006200073660118362000928565b91507f41646465642063616e6469646174653a200000000000000000000000000000006000830152601182019050919050565b600062000777828462000580565b915081905092915050565b60006200078f8262000727565b91506200079d828462000580565b915081905092915050565b60006020820190508181036000830152620007c481846200053f565b905092915050565b60006020820190508181036000830152620007e781620005b7565b9050919050565b600060208201905081810360008301526200080981620005f9565b9050919050565b600060208201905081810360008301526200082b8162000661565b9050919050565b600060208201905081810360008301526200084d81620006a3565b9050919050565b600060208201905081810360008301526200086f81620006e5565b9050919050565b6000604051905081810181811067ffffffffffffffff82111715620008a0576200089f62000a55565b5b8060405250919050565b600067ffffffffffffffff821115620008c857620008c762000a55565b5b602082029050602081019050919050565b600067ffffffffffffffff821115620008f757620008f662000a55565b5b601f19601f8301169050602081019050919050565b600081519050919050565b600082825260208201905092915050565b600081905092915050565b6000819050919050565b60005b838110156200095d57808201518184015260208101905062000940565b838111156200096d576000848401525b50505050565b600060028204905060018216806200098c57607f821691505b60208210811415620009a357620009a262000a26565b5b50919050565b6000620009b68262000933565b91507fffffffffffffffffffffffffffffffffffffffffffffffffffffffffffffffff821415620009ec57620009eb620009f7565b5b600182019050919050565b7f4e487b7100000000000000000000000000000000000000000000000000000000600052601160045260246000fd5b7f4e487b7100000000000000000000000000000000000000000000000000000000600052602260045260246000fd5b7f4e487b7100000000000000000000000000000000000000000000000000000000600052604160045260246000fd5b6000601f19601f8301169050919050565b610ea28062000aa56000396000f3fe608060405234801561001057600080fd5b50600436106100885760003560e01c80638d4b44d91161005b5780638d4b44d91461013b5780638da5cb5b1461016b578063b13c744b14610189578063fc36e15b146101b957610088565b806309eef43e1461008d5780632e6997fe146100bd5780634a3bf377146100db578063538c91b21461010b575b600080fd5b6100a760048036038101906100a29190610740565b6101d5565b6040516100b49190610a96565b60405180910390f35b6100c56101f5565b6040516100d29190610a74565b60405180910390f35b6100f560048036038101906100f09190610769565b6102ce565b6040516101029190610b43565b60405180910390f35b61012560048036038101906101209190610769565b61033e565b6040516101329190610a96565b60405180910390f35b61015560048036038101906101509190610769565b610412565b6040516101629190610b43565b60405180910390f35b610173610440565b6040516101809190610a59565b60405180910390f35b6101a3600480360381019061019e91906107aa565b610464565b6040516101b09190610ab1565b60405180910390f35b6101d360048036038101906101ce9190610769565b610510565b005b60016020528060005260406000206000915054906101000a900460ff1681565b60606003805480602002602001604051908101604052809291908181526020016000905b828210156102c557838290600052602060002001805461023890610d25565b80601f016020809104026020016040519081016040528092919081815260200182805461026490610d25565b80156102b15780601f10610286576101008083540402835291602001916102b1565b820191906000526020600020905b81548152906001019060200180831161029457829003601f168201915b505050505081526020019060010190610219565b50505050905090565b60006102d98261033e565b610318576040517f08c379a000000000000000000000000000000000000000000000000000000000815260040161030f90610b23565b60405180910390fd5b6002826040516103289190610a2b565b9081526020016040518091039020549050919050565b600080600090505b60038054905081101561040757826040516020016103649190610a2b565b60405160208183030381529060405280519060200120600382815481106103b4577f4e487b7100000000000000000000000000000000000000000000000000000000600052603260045260246000fd5b906000526020600020016040516020016103ce9190610a42565b6040516020818303038152906040528051906020012014156103f457600191505061040d565b80806103ff90610d57565b915050610346565b50600090505b919050565b6002818051602081018201805184825260208301602085012081835280955050505050506000915090505481565b60008054906101000a900473ffffffffffffffffffffffffffffffffffffffff1681565b6003818154811061047457600080fd5b90600052602060002001600091509050805461048f90610d25565b80601f01602080910402602001604051908101604052809291908181526020018280546104bb90610d25565b80156105085780601f106104dd57610100808354040283529160200191610508565b820191906000526020600020905b8154815290600101906020018083116104eb57829003601f168201915b505050505081565b600160003373ffffffffffffffffffffffffffffffffffffffff1673ffffffffffffffffffffffffffffffffffffffff16815260200190815260200160002060009054906101000a900460ff161561059d576040517f08c379a000000000000000000000000000000000000000000000000000000000815260040161059490610b03565b60405180910390fd5b6105a68161033e565b6105e5576040517f08c379a00000000000000000000000000000000000000000000000000000000081526004016105dc90610b23565b60405180910390fd5b60016002826040516105f79190610a2b565b908152602001604051809103902060008282546106149190610c45565b9250508190555060018060003373ffffffffffffffffffffffffffffffffffffffff1673ffffffffffffffffffffffffffffffffffffffff16815260200190815260200160002060006101000a81548160ff0219169083151502179055507f92f9fa717af6db1d80f97dd1279605ad261a3be20a4347a15950fa26f3ff631a81336040516106a3929190610ad3565b60405180910390a150565b60006106c16106bc84610b8f565b610b5e565b9050828152602081018484840111156106d957600080fd5b6106e4848285610ce3565b509392505050565b6000813590506106fb81610e3e565b92915050565b600082601f83011261071257600080fd5b81356107228482602086016106ae565b91505092915050565b60008135905061073a81610e55565b92915050565b60006020828403121561075257600080fd5b6000610760848285016106ec565b91505092915050565b60006020828403121561077b57600080fd5b600082013567ffffffffffffffff81111561079557600080fd5b6107a184828501610701565b91505092915050565b6000602082840312156107bc57600080fd5b60006107ca8482850161072b565b91505092915050565b60006107df838361087a565b905092915050565b6107f081610c9b565b82525050565b600061080182610be4565b61080b8185610c07565b93508360208202850161081d85610bbf565b8060005b85811015610859578484038952815161083a85826107d3565b945061084583610bfa565b925060208a01995050600181019050610821565b50829750879550505050505092915050565b61087481610cad565b82525050565b600061088582610bef565b61088f8185610c18565b935061089f818560208601610cf2565b6108a881610e2d565b840191505092915050565b60006108be82610bef565b6108c88185610c29565b93506108d8818560208601610cf2565b6108e181610e2d565b840191505092915050565b60006108f782610bef565b6109018185610c3a565b9350610911818560208601610cf2565b80840191505092915050565b6000815461092a81610d25565b6109348186610c3a565b9450600182166000811461094f576001811461096057610993565b60ff19831686528186019350610993565b61096985610bcf565b60005b8381101561098b5781548189015260018201915060208101905061096c565b838801955050505b50505092915050565b60006109a9601783610c29565b91507f596f75206861766520616c726561647920766f7465642e0000000000000000006000830152602082019050919050565b60006109e9601983610c29565b91507f43616e64696461746520646f6573206e6f742065786973742e000000000000006000830152602082019050919050565b610a2581610cd9565b82525050565b6000610a3782846108ec565b915081905092915050565b6000610a4e828461091d565b915081905092915050565b6000602082019050610a6e60008301846107e7565b92915050565b60006020820190508181036000830152610a8e81846107f6565b905092915050565b6000602082019050610aab600083018461086b565b92915050565b60006020820190508181036000830152610acb81846108b3565b905092915050565b60006040820190508181036000830152610aed81856108b3565b9050610afc60208301846107e7565b9392505050565b60006020820190508181036000830152610b1c8161099c565b9050919050565b60006020820190508181036000830152610b3c816109dc565b9050919050565b6000602082019050610b586000830184610a1c565b92915050565b6000604051905081810181811067ffffffffffffffff82111715610b8557610b84610dfe565b5b8060405250919050565b600067ffffffffffffffff821115610baa57610ba9610dfe565b5b601f19601f8301169050602081019050919050565b6000819050602082019050919050565b60008190508160005260206000209050919050565b600081519050919050565b600081519050919050565b6000602082019050919050565b600082825260208201905092915050565b600082825260208201905092915050565b600082825260208201905092915050565b600081905092915050565b6000610c5082610cd9565b9150610c5b83610cd9565b9250827fffffffffffffffffffffffffffffffffffffffffffffffffffffffffffffffff03821115610c9057610c8f610da0565b5b828201905092915050565b6000610ca682610cb9565b9050919050565b60008115159050919050565b600073ffffffffffffffffffffffffffffffffffffffff82169050919050565b6000819050919050565b82818337600083830152505050565b60005b83811015610d10578082015181840152602081019050610cf5565b83811115610d1f576000848401525b50505050565b60006002820490506001821680610d3d57607f821691505b60208210811415610d5157610d50610dcf565b5b50919050565b6000610d6282610cd9565b91507fffffffffffffffffffffffffffffffffffffffffffffffffffffffffffffffff821415610d9557610d94610da0565b5b600182019050919050565b7f4e487b7100000000000000000000000000000000000000000000000000000000600052601160045260246000fd5b7f4e487b7100000000000000000000000000000000000000000000000000000000600052602260045260246000fd5b7f4e487b7100000000000000000000000000000000000000000000000000000000600052604160045260246000fd5b6000601f19601f8301169050919050565b610e4781610c9b565b8114610e5257600080fd5b50565b610e5e81610cd9565b8114610e6957600080fd5b5056fea26469706673582212207f9c1386e7d5d854567e147f335148a450213e3d895a1746a788a0747d96f09f64736f6c63430008000033",
  "immutableReferences": {},
  "source": "// SPDX-License-Identifier: MIT\r\npragma solidity ^0.8.0;\r\n\r\ncontract Voting {\r\n    address public owner;\r\n    mapping(address => bool) public hasVoted;\r\n    mapping(string => uint) public votesReceived;\r\n    string[] public candidateList;\r\n\r\n    event Debug(string message);\r\n    event Voted(string candidate, address voter);\r\n\r\n    constructor(string[] memory candidateNames) {\r\n        emit Debug(\"Constructor started\");\r\n\r\n        require(candidateNames.length > 0, \"Candidate list must not be empty.\");\r\n        emit Debug(\"Candidate list is not empty\");\r\n\r\n        owner = msg.sender;\r\n        emit Debug(\"Owner is set\");\r\n\r\n        for (uint i = 0; i < candidateNames.length; i++) {\r\n            candidateList.push(candidateNames[i]);\r\n            votesReceived[candidateNames[i]] = 0;\r\n            emit Debug(string(abi.encodePacked(\"Added candidate: \", candidateNames[i])));\r\n        }\r\n\r\n        emit Debug(\"Constructor finished\");\r\n    }\r\n\r\n    // Function to vote for a candidate\r\n    function vote(string memory candidate) public {\r\n        require(!hasVoted[msg.sender], \"You have already voted.\");\r\n        require(validCandidate(candidate), \"Candidate does not exist.\");\r\n\r\n        votesReceived[candidate] += 1;\r\n        hasVoted[msg.sender] = true;\r\n\r\n        emit Voted(candidate, msg.sender);\r\n    }\r\n\r\n    // Helper function to check if a candidate is valid\r\n    function validCandidate(string memory candidate) public view returns (bool) {\r\n        for (uint i = 0; i < candidateList.length; i++) {\r\n            if (keccak256(abi.encodePacked(candidateList[i])) == keccak256(abi.encodePacked(candidate))) {\r\n                return true;\r\n            }\r\n        }\r\n        return false;\r\n    }\r\n\r\n    // Function to get total votes for a candidate\r\n    function totalVotesFor(string memory candidate) public view returns (uint) {\r\n        require(validCandidate(candidate), \"Candidate does not exist.\");\r\n        return votesReceived[candidate];\r\n    }\r\n\r\n    // Function to get all candidates (useful for front-end display)\r\n    function getAllCandidates() public view returns (string[] memory) {\r\n        return candidateList;\r\n    }\r\n}\r\n",
  "sourcePath": "C:\\Users\\Admin\\OneDrive\\Desktop\\Decentralized voting application\\contracts\\voting.sol",
  "compiler": {
    "name": "solc",
    "version": "0.8.0+commit.c7dfd78e.Emscripten.clang"
  },
  "schemaVersion": "3.4.16",
  "updatedAt": "2024-11-05T13:27:51.546Z",
  "networkType": "ethereum",
  "devdoc": {
    "kind": "dev",
    "methods": {},
    "version": 1
  },
  "userdoc": {
    "kind": "user",
    "methods": {},
    "version": 1
  }
}